:100000000C9469000C9491000C9491000C94910054
:100010000C9491000C9491000C9491000C942F0F6F
:100020000C9491000C9491000C9491000C9491000C
:100030000C9491000C9491000C9491000C949100FC
:100040000C941F0B0C9491000C94400A0C941A0A07
:100050000C9491000C9491000C9491000C949100DC
:100060000C94690B0C949100000000002300260002
:10007000290000000000240027002A0000000008DA
:10008000000201000003040700000000000000005F
:10009000010204081020408001020408102001021F
:1000A0000408102000000000250028002B00040494
:1000B0000404040404040202020202020303030310
:1000C00003034150500041444C00C600C200A71534
:1000D000441211241FBECFEFD8E0DEBFCDBF26E013
:1000E000A8EDB2E001C01D92A932B207E1F712E01B
:1000F000A0E0B1E0E2E8FEE302C005900D92A83D69
:10010000B107D9F710E0C8E6D0E004C02197FE019E
:100110000E94F81AC736D107C9F70E945A120C94E8
:10012000341F0C9400002F923F924F925F926F9277
:100130007F928F929F92AF92BF92CF92DF92EF9277
:10014000FF920F931F93CF93DF93CDB7DEB728971E
:100150000FB6F894DEBF0FBECDBFFB018EEC94E06E
:10016000938782878091CB0490E0958784878091E4
:10017000980590E0978786878091C704853009F0BD
:1001800063C68091D0049091D104885891098D352F
:10019000910588F48091CB04843041F48091D2049D
:1001A0009091D3048097479708F47DC08091CB0449
:1001B000843408F05EC08091CB048A3108F4D5C045
:1001C0008091CE049091CF04843F914050F41186E9
:1001D00010868FEF9FEFDC0184839583A683B7831E
:1001E0003CC08091D0049091D10485974B9708F042
:1001F000BCC004EDE02E04E0F02E82E090E040E090
:1002000050E0BA018C010F5F1F4F2091CB0430E00A
:10021000021713076CF4970122503109D9012D916F
:100220003C91275031092730310508F47FC0C801BF
:10023000019795958795918780870C971CF4118677
:10024000108693C0448355836683778384E090E06F
:100250000DC044835583668377838BE090E006C0AE
:1002600044835583668377838CE090E09183808319
:100270001EC58091D2049091D304825491098E9727
:1002800008F099CF20E030E0C12CD12C7601A901F3
:100290004C525B4FDA014D915C9149505109493004
:1002A000510598F088CF8091D4049091D504099796
:1002B000099708F07BCF118610868FEF9FEFDC0146
:1002C00084839583A683B783C2C5B9016A527B4FE5
:1002D000DB014D915C914751510942315105C0F408
:1002E000D701C601880F991FAA1FBB1F6C017D0192
:1002F0006894C0F82C5F3F4F2038310541F620E26A
:1003000030E031872087C482D582E682F7829FC59C
:10031000DB014D915C91465051094730510508F081
:100320004ACFCC0CDD1CEE1CFF1CE4CFD7012D9175
:100330003C91235131092F30310550F4440F551FA2
:10034000661F771F41600296B4E0EB0EF11C5ACF96
:10035000D7012D913C912A5031092930310528F4DB
:10036000440F551F661F771FEECF8091CB048A3153
:1003700008F460C08091CE049091CF048032934005
:1003800008F425CF8091D0049091D104C697869728
:1003900008F050C08091D2049091D304C6978697FC
:1003A00008F048C0B6EDEB2EB4E0FB2E83E090E001
:1003B00040E050E0BA018C010F5F1F4F2091CB0449
:1003C00030E00217130764F4970122503109D90174
:1003D0002D913C912C5031092B30310560F0C80132
:1003E000019795958795918780870C970CF031CF71
:1003F000118610861FC0D7012D913C9125523109DD
:100400002B31310550F4440F551F661F771F416093
:100410000296B4E0EB0EF11CCECFD7012D913C91AA
:100420002C5031092A30310528F4440F551F661F1E
:10043000771FEECF8091CB04823208F452C08091B6
:10044000D0049091D1040697079708F04AC044ED74
:10045000C42E44E0D42E82E090E040E050E0BA01A7
:100460008C010F5F1F4F2091CB0430E00217130760
:10047000F4F4D6011297ED90FC9011979D01BEE126
:10048000EB1AF108A7E1EA16F104E0F4440F551F56
:10049000661F771F4160D6012D913C91B4E0CB0ED1
:1004A000D11C2350310925303105C8F0C80101970E
:1004B000959587959187808740970CF0D1CE1186CE
:1004C00010860FC0D9012D913C912C5031092B3051
:1004D000310538F4440F551F661F771FDCCF029695
:1004E000BFCF7F011C821B8281E090E09A838983C9
:1004F0008091CB048D3070F41C821B8281E090E0EF
:100500009A838983F70184859585181619060CF45A
:1005100074C0D1C029E733E0AE014D5F5F4FBE012B
:100520006F5F7F4FC7010E942011892B29F729E7B0
:1005300033E0AE014D5F5F4FBE016F5F7F4FC7017C
:100540000E9420110197C1F629E733E0AE014D5F0B
:100550005F4FBE016F5F7F4FC7010E942011892B43
:1005600059F6812C912C540100E010E08091CB04CD
:1005700090E029813A812817390794F529E733E07B
:10058000AE014D5F5F4FBE016F5F7F4FC7010E949D
:1005900020116C0129E733E0AE014D5F5F4FBE01D2
:1005A0006F5F7F4FC7010E942011F1E0CF16D10489
:1005B00051F4892B09F0A0CF880C991CAA1CBB1CF4
:1005C000689480F80AC0CD2809F096CF019709F009
:1005D00093CF880C991CAA1CBB1C0F5F1F4FC6CF62
:1005E000D70119961C930E931897F7018482958270
:1005F000A682B78281E090E039CE0284F385E02DB7
:1006000082E090E09A8389838281938189974E97D3
:1006100008F051C083E090E09A83898384819581BA
:100620000B970A9708F047C02CEB31E0AE014D5F05
:100630005F4FBE016F5F7F4FC7010E942011892B62
:10064000D1F52CEB31E0AE014D5F5F4FBE016F5F26
:100650007F4FC7010E942011019769F5412C512C51
:10066000320100E010E0F7012485358589819A8107
:10067000821793070CF02FC12CEB31E0AE014D5FD8
:100680005F4FBE016F5F7F4FC7010E9420115C0169
:100690000330110509F0E5C02CEB31E0AE014D5FF0
:1006A0005F4FBE016F5F7F4FC7010E942011A816E8
:1006B000B90609F4D6C0D7011A96ED91FC911B97A3
:1006C00082819381C6978697E0F4848195814B97C8
:1006D0004597B8F4DF0116966F0126ECC20ED11CC7
:1006E00020E030E040E050E060E070E080E090E04A
:1006F0000D911C911197095011090830110508F44A
:10070000F4C08091CB04893370F182819381895741
:1007100091098335910508F41BC125C0D9011296B2
:100720006D917C911397665171096131710508F0E3
:1007300037C1D501C401880F991FAA1FBB1F4C01E7
:100740005D01689480F84E5F5F4F2C5F3F4F4B33E5
:10075000510509F40CC1D9016D917C916A50710960
:1007600069307105D8F28091CB04823231F48281F4
:1007700093810A97099708F423C18281938189574D
:10078000910983359105D0F48091CB048132B0F08A
:1007900084819581CA97899788F49F012A5F3F4F8A
:1007A000812C912C540143E050E0D9016D917C9152
:1007B0006A5071096930710508F41EC18281938104
:1007C0008C549109C59778F48091CB04843031F42E
:1007D000848195818097479708F46CC18091CB0400
:1007E000843408F04EC18091CB04863460F182815C
:1007F00093810C970B9708F4A9C125C0D9011296D3
:100800006D917C9113976E5171096731710508F0F4
:10081000D1C1D501C401880F991FAA1FBB1F4C016C
:100820005D01689480F84E5F5F4F2C5F3F4F453409
:10083000510509F4A6C1D9016D917C916C507109E3
:100840006B307105D8F28091CB04883508F4E4C18F
:1008500082819381855891098B35910508F4BAC13D
:10086000DBC12CEB31E0AE014D5F5F4FBE016F5F2E
:100870007F4FC7010E9420116C010330110579F4EC
:100880002CEB31E0AE014D5F5F4FBE016F5F7F4FDC
:10089000C7010E942011C816D90609F00CCFA11477
:1008A000B10459F4CA94CD2809F005CF440C551C65
:1008B000661C771C689440F80BC0AA94AB2809F01A
:1008C000FACECD2809F0F7CE440C551C661C771CD7
:1008D0000F5F1F4FC8CE11870087F70144825582F2
:1008E0006682778282E090E0C1CC12960D911C91D5
:1008F0001397015111090D301105E0F401E00E9438
:10090000AD1A21601496AC15BD0509F0F1CEF701C2
:10091000248335834683578300E20E94C81A2283CA
:10092000338385E090E09183808380E390E091873A
:100930008087BDC112960D911C9113970450110927
:100940000530110508F0DDCE01E00E94AD1ADACFC6
:1009500084819581CA97899708F005CF9F012A5F06
:100960003F4F812C912C540143E050E0F4CE9F0185
:100970002A583F4FD9012D913C912A5031092930F5
:10098000310508F0F0CE2CE130E0F7013187208707
:10099000D70184829582A682B7828AE090E085C1E1
:1009A000D90112966D917C91139766507109673049
:1009B000710508F0D8CE880C991CAA1CBB1CC3CEAC
:1009C0002091CB04CF01820F911D820F911DDC017C
:1009D00012978D919C910A97099708F0CECEF70156
:1009E000118610868FEF9FEFDC0184839583A683A9
:1009F000B78386E090E03ACCD90112966D917C9154
:100A00001397665171096131710558F5D501C4011B
:100A1000880F991FAA1FBB1F4C015D01689480F8C5
:100A20004E5F5F4F2C5F3F4F4332510509F0BDCE03
:100A30009F012A5B3F4FD9012D913C912A503109EA
:100A40002930310508F0BACE20E130E0F7013187D6
:100A50002087D70184829582A682B78286E090E0C3
:100A600024C1D90112966D917C911397665071093A
:100A70006730710508F0A2CE880C991CAA1CBB1C1B
:100A8000CFCF8481958189549109C39708F0ABCE6B
:100A90009F012A5F3F4FAF014A575F4F812C912C36
:100AA0005401D9016D917C916950710969307105CA
:100AB000B8F099CE868197810997099708F08ECE74
:100AC000D70119961C921E9218978FEF9FEFDC01A9
:100AD000F70184839583A683B78387E090E0C6CB34
:100AE000D90112966D917C9113976651710961310C
:100AF0007105E0F4D501C401880F991FAA1FBB1F1F
:100B00004C015D01689480F82C5F3F4F2417350736
:100B100041F620E230E0F70131872087D701848257
:100B20009582A682B78287E090E0BFC0D901129675
:100B30006D917C911397665071096730710508F0CB
:100B400052CE880C991CAA1CBB1CDECF84819581D7
:100B50000997099708F077CE868197818C974F97F0
:100B600008F071CE8085918589974D9708F06BCEFE
:100B70009F01265F3F4F812C912C540145E050E0AE
:100B80005ACE9F0126573F4FD9012D913C912C50B1
:100B900031092B30310508F056CE20E230E0F70164
:100BA00031872087D70184829582A682B78288E028
:100BB00090E07BC0D90112966D917C91139769509A
:100BC00071096930710508F03ECE880C991CAA1C89
:100BD000BB1C29CE84819581825491098E97E0F4C3
:100BE0008F01045C1F4F8DE190E040E050E02091C8
:100BF000CB0430E024503109821793070CF063C016
:100C0000980122503109D9012D913C912950310987
:100C10002830310508F46EC08091CB04803209F091
:100C20007EC0828193810697069708F078C0848100
:100C300095810997099708F072C09F012A5F3F4F7D
:100C4000AF01425C5F4F812C912C5401D9016D9111
:100C50007C91665071096630710508F060C0D90159
:100C600012966D917C9113976951710963317105E9
:100C700008F0D5C0D501C401880F991FAA1FBB1F5A
:100C80004C015D01689480F82C5F3F4F24173507B5
:100C9000E9F62EE030E0F70131872087D701848222
:100CA0009582A682B7828FE090E08D939C9381E03D
:100CB00090E0D0C0D8012D913C91285131092231CA
:100CC000310550F1CB01019795958795D70119967C
:100CD0009C938E9318978A970CF49ECF052E000C48
:100CE000660B770BF701448355836683778389E02E
:100CF00090E0BCCABC016F5F7F4FD8012D913C9141
:100D00002750310927303105A8F6440F551F41609F
:100D100002960C5F1F4F6BCF440F551FF9CFD701C1
:100D20001C962D903C901D97B6E02B1631040CF4C8
:100D300086C08F010E5F1F4F75EC872E7DE9972EC1
:100D40007CE1A72E71E8B72EE3E0CE2ED12CF8017E
:100D5000648175816080718080E090E00E947A19E2
:100D60006D837E838F839887B30180E090E00E943B
:100D70007A192B013C012DEC3CEC4CE45FE30E9422
:100D80002C1A9B01AC016D817E818F8198850E9418
:100D9000CD1887FD19C02DEC3CEC4CE45FE36D8170
:100DA0007E818F8198850E942C1A9B01AC01C30122
:100DB000B2010E94CD18E82F880FFF0BEE27FF0F1E
:100DC000EE1FFF27319602C0E0E0F0E0A50194019C
:100DD00063E971E080E091E00E94DD174F01FF0FB1
:100DE000AA08BB0886269726A826B926FFEFCF1AA1
:100DF000DF0A0E5F1F4F2C143D0409F0A8CFD70166
:100E000014968D929D92AD92BC92179780E290E0DD
:100E100019969C938E9318978FEF9FEF46CFD90129
:100E200012966D917C911397695071096930710523
:100E300008F075CF880C991CAA1CBB1C25CF82E03A
:100E40008093C7041092CB0480E090E003C083E05D
:100E500090E00CCA28960FB6F894DEBF0FBECDBF47
:100E6000DF91CF911F910F91FF90EF90DF90CF9086
:100E7000BF90AF909F908F907F906F905F904F90BA
:100E80003F902F900895FC01538D448D252F30E025
:100E9000842F90E0821B930B541710F0CF96089587
:100EA00001970895FC01918D828D981761F0828DD4
:100EB000DF01A80FB11D5D968C91928D9F5F9F738E
:100EC000928F90E008958FEF9FEF0895FC01918D30
:100ED000828D981731F0828DE80FF11D858D90E09D
:100EE00008958FEF9FEF0895FC01918D228D892F3A
:100EF00090E0805C9F4F821B91098F739927089522
:100F000087E194E00E94740721E0892B09F420E036
:100F1000822F0895FC01848DDF01A80FB11DA35A13
:100F2000BF4F2C91848D90E001968F739927848F09
:100F3000A689B7892C93A089B1898C91837080642C
:100F40008C93938D848D981306C00288F389E02DCD
:100F500080818F7D80830895EF92FF920F931F937E
:100F6000CF93DF93EC0181E0888F9B8D8C8D98135C
:100F700005C0E889F989808185FD26C0F62E0B8D94
:100F800010E00F5F1F4F0F731127E02E8C8DE812BA
:100F90000CC00FB607FCFACFE889F989808185FF7C
:100FA000F5CFCE010E948A07F1CF8B8DFE01E80FAD
:100FB000F11DE35AFF4FF0829FB7F8940B8FEA8937
:100FC000FB89808180620AC09FB7F894EE89FF890F
:100FD0006083E889F98980818370806480839FBF02
:100FE00081E090E0DF91CF911F910F91FF90EF9002
:100FF0000895CF93DF93EC01888D8823C9F0EA89A7
:10100000FB89808185FD05C0A889B9898C9186FD01
:101010000FC00FB607FCF5CF808185FFF2CFA889FE
:10102000B9898C9185FFEDCFCE010E948A07E7CF69
:10103000DF91CF910895833081F028F4813099F0C9
:101040008230A1F008958730A9F08830B9F084305B
:10105000D1F4809180008F7D03C0809180008F77D4
:1010600080938000089584B58F7702C084B58F7D0A
:1010700084BD08958091B0008F7703C08091B00047
:101080008F7D8093B000089585ED8093BC008091A2
:10109000BC0084FDFCCF10921D0308954091F9021D
:1010A000262F30E0240F311D21323105DCF4209150
:1010B0001D032430C9F4FC0180E090E0861758F449
:1010C0003091F9022191DC01A752BD4FA30FB11D50
:1010D0002C930196F3CF8091F902680F6093F90287
:1010E00080E0089581E0089582E0089508958FEFEB
:1010F0009FEF08958FEF9FEF08958091D80290E0C1
:101100009195819591090895CF93DF93CB01EA01E1
:10111000642F0E944E08CE01DF91CF910895CF93A6
:10112000DF931F92CDB7DEB7698361E0CE010196F0
:101130000E944E0881E090E00F90DF91CF910895DA
:10114000089580E090E00895CF93DC01FB01808159
:10115000843429F0803531F482E090E005C081E0EC
:1011600090E002C080E090E0EF3F2FEFF20749F1FE
:101170004181042E000C550B405351094A30510552
:1011800000F52281022E000C330B205331092A3046
:101190003105B8F40097A9F0CAE0C49FB001C59F1B
:1011A000700D1124260F371F13963C932E93129720
:1011B00015969C938E93149733961796FC93EE9303
:1011C0001697CF91089580918E03811102C099E105
:1011D00001C095E081E020910401291380E0089589
:1011E0000F931F9387E194E00E947407892B59F1B4
:1011F00087E194E00E94520791E08A3009F090E084
:1012000090938C038A3071F3009148031091490345
:1012100020914A0330914B03B901A8014F5F5F4F02
:101220006F4F7F4F409348035093490360934A03A5
:1012300070934B03F801E45BFC4F8083FA01E45B9D
:10124000FC4F1082CFCF1F910F9108950E9480070D
:1012500081110C94F0080895DC01ED91FC9101904E
:10126000F081E02D09940F931F93CF93DF938C01AE
:10127000FB01EA01DC0112963C91129713969C91B6
:10128000832F6AE070E00E94991A86EF869F802D76
:101290001124305DD80114964D915C911597413021
:1012A000510529F04230510521F490E503C094E442
:1012B00001C09FE39083605D6183380F32838EE3CA
:1012C0008383422F50E0BE01CF010496DF91CF917E
:1012D0001F910F910C94461CCF92DF92EF92FF92D8
:1012E0000F931F93CF93DF9300D0CDB7DEB7009756
:1012F000F1F07A016B018C014AE050E0BE016F5FB2
:101300007F4F0E94B41629813A810217130758F4BF
:10131000F6016083718382839383E114F10419F0F1
:10132000F7013183208381E00217130708F080E082
:101330000F900F90DF91CF911F910F91FF90EF9041
:10134000DF90CF900895FF920F931F93CF93DF9379
:101350008C01FB0101900020E9F73297F0808FE3C8
:10136000F8123BC0EA01CB0165E472E00E94361C32
:10137000892B71F5B8016E5F7F4FC80142960E94BC
:101380009300892B81F1F801868197812085318531
:1013900042E04093C7041092CB043F932F939F9356
:1013A0008F9383E591E09F938F93DF93CF930E9478
:1013B000551CEDB7FEB738960FB6F894FEBF0FBEBA
:1013C000EDBFFE0101900020E9F73197EC1B02C050
:1013D000F882E1E08E2F90E00CC08FE3FA01808369
:1013E00081E090E006C066E571E0CE010E943F1CFE
:1013F000E8CFDF91CF911F910F91FF900895AB013E
:10140000BC0181EB95E00C94A3096115710579F09D
:10141000FB0101900020E9F73197AF01461B570B04
:10142000DC01ED91FC910280F381E02D099480E0D4
:1014300090E008951F920F920FB60F9211242F93F0
:101440003F934F935F936F937F938F939F93AF934C
:10145000BF93EF93FF9387E194E00E948A07FF9187
:10146000EF91BF91AF919F918F917F916F915F911C
:101470004F913F912F910F900FBE0F901F90189595
:101480001F920F920FB60F9211242F938F939F9359
:10149000EF93FF93E0912704F09128048081E0917D
:1014A0002D04F0912E0482FD12C0908180913004B1
:1014B0008F5F8F7320913104821751F0E0913004D7
:1014C000F0E0E95EFB4F958F8093300401C080818E
:1014D000FF91EF919F918F912F910F900FBE0F90E1
:1014E0001F9018951F93CF93DF93282F30E0F901B9
:1014F000E458FF4F8491F901E057FF4FD491F9016F
:10150000E255FF4FC491CC23C1F0162F81110E94E8
:101510001B08EC2FF0E0EE0FFF1FEC55FF4FA591DD
:10152000B4919FB7F894111104C08C91D095D82331
:1015300002C0EC91DE2BDC939FBFDF91CF911F9116
:101540000895CF93DF9390E0FC01E057FF4F249183
:10155000FC01E255FF4F8491882361F190E0880FF0
:10156000991FFC01EE58FF4FC591D491FC01EC5539
:10157000FF4FA591B491611109C09FB7F89488817C
:10158000209582238883EC912E230BC0623061F476
:101590009FB7F8948881322F309583238883EC910C
:1015A0002E2B2C939FBF06C08FB7F894E8812E2B6B
:1015B00028838FBFDF91CF910895DC01ED91FC91DD
:1015C0000190F081E02D0995F89482E08093B000BD
:1015D0008093B10094E69093B3001092B200809390
:1015E00070007894E7ECF4E080831482818160E0FD
:1015F0000C94A10A3FB7F89480914403909145035D
:10160000A0914603B091470326B5A89B05C02F3F84
:1016100019F00196A11DB11D3FBFBA2FA92F982F18
:101620008827820F911DA11DB11DBC01CD0142E093
:10163000660F771F881F991F4A95D1F708951F924B
:101640000F920FB60F9211242F933F938F939F9376
:10165000AF93BF938091B4049091B504A091B60468
:10166000B091B7043091430323E0230F2D3720F4CA
:101670000196A11DB11D05C026E8230F0296A11DEC
:10168000B11D209343038093B4049093B504A093B9
:10169000B604B093B7048091440390914503A091A0
:1016A0004603B09147030196A11DB11D80934403E9
:1016B00090934503A0934603B0934703BF91AF9126
:1016C0009F918F913F912F910F900FBE0F901F9080
:1016D00018951F920F920FB60F9211242F933F93DC
:1016E0004F935F936F937F938F939F93AF93BF932A
:1016F000EF93FF938091B900887F803609F49CC0F6
:1017000068F5883209F45BC090F4803109F454C064
:1017100038F4882309F4F2C0883009F44DC0F2C0CF
:10172000883109F44CC0803209F45DC0EBC08034CC
:1017300009F468C048F4803309F455C0883309F0CF
:10174000E1C080931C03D4C0803509F44FC08835B4
:1017500009F45DC0883409F0D5C0D2C0883909F4D5
:10176000C3C0A8F4883709F467C038F4883609F490
:1017700063C0803709F460C0C5C0883809F4B4C0BC
:10178000803909F45FC0803809F0BCC05BC0803B81
:1017900009F484C038F4803A09F466C0883A09F440
:1017A0007DC0B0C0803C09F4A3C0883C09F4A0C04F
:1017B000883B09F486C0A6C08091420310C0909176
:1017C000410380914003981770F5E091410381E057
:1017D0008E0F80934103F0E0E05EFC4F80818093A8
:1017E000BB0085EC82C080931C038AC0E09141035A
:1017F00081E08E0F809341038091BB00F0E0E05EBA
:10180000FC4F808390914103809140036AC0E09136
:10181000410381E08E0F809341038091BB00F0E093
:10182000E05EFC4F808380911F03811169C081E0DD
:1018300080931E0384EA5DC083E080931D031092B1
:101840001B03CFCF80911B03803208F04DC0E09185
:101850001B0381E08E0F80931B038091BB00F0E09F
:10186000E550FD4F8083BDCF85EC8093BC00109286
:101870001D0380911B03803230F4E0911B03F0E0E4
:10188000E550FD4F108260911B0370E08BEF92E0FA
:10189000E0E0F0E0099510921B0334C084E08093EF
:1018A0001D031092FA021092F902E0E0F0E00995AF
:1018B0008091F902811105C081E08093F9021092B4
:1018C000D902E091FA0281E08E0F8093FA02F0E0F3
:1018D000E752FD4F80818093BB009091FA02809186
:1018E000F902981708F47DCF85E88093BC000AC000
:1018F00085EC8093BC0010921D0304C010921C0361
:101900000E944408FF91EF91BF91AF919F918F91F9
:101910007F916F915F914F913F912F910F900FBEEB
:101920000F901F9018950F931F93DC0117968C91C1
:101930001797882361F0489FA0011124452F829FAB
:1019400090011124232F809F80011124012F1D96C7
:101950008C911D971A969C911A971896ED91FC916F
:101960001997891308C0CB01880F991F680F791F39
:101970006E0F7F1F0AC0660F771F660F771F6E0FEF
:101980007F1FFB01E80FF11D10821A968C911A97A8
:10199000FB01E80FF11D40831B968C911B97FB0107
:1019A000E80FF11D20831C968C91FB01E80FF11DBF
:1019B00000831F910F910895CF92DF92EF92FF92D3
:1019C0000F931F93CF93DF93CDB7DEB729970FB651
:1019D000F894DEBF0FBECDBF8C01DC0118968D914F
:1019E0009C911997892B09F4A3C00E94FA0AF80167
:1019F000C684D784E088F188DC01CB018C199D096D
:101A0000AE09BF098C329140A105B10570F3F8947D
:101A1000D80114968D919C9115979A838983189675
:101A2000ED91FC9119977F01BFEFEB1AFB0A8081C2
:101A30008987F80190810288F389E02DD8015496B6
:101A40008C91992309F430C09081982B98879081CC
:101A5000809589238F838F818C8388E08B83588541
:101A60006F8149853B812C8189819A81D70150837F
:101A700047FD252F3A952083262F39F0441F00C0BB
:101A800000006083000000C0F2CF38E04D91608319
:101A90000000019761F7D8015396FC93EE9352979B
:101AA00049873B832C833AC09081982B98879081FB
:101AB000809589238F838F818E8388E08D835885DD
:101AC0006F8149853D812E8189819A81D70150831B
:101AD00047FD252F00C000C0208300C000C000C00B
:101AE00000C000C060830000262F3A9541F0441FDB
:101AF000000000C000C000C000C000C0E8CF38E057
:101B00004D9100C0608300C0019709F7D80153963A
:101B1000FC93EE93529749873D832E839A83898362
:101B200078940E94FA0AF80166877787808B918BF8
:101B300029960FB6F894DEBF0FBECDBFDF91CF91CF
:101B40001F910F91FF90EF90DF90CF9008954F92EB
:101B50005F926F927F928F929F92AF92BF92CF923D
:101B6000DF92EF92FF920F931F93CF93DF93CDB746
:101B7000DEB76E970FB6F894DEBF0FBECDBF6C0117
:101B80005B01F42E152FDB018C91823559F4D601BF
:101B9000ED91FC910190F081E02DC60109956EE573
:101BA00071E021C1672B09F491C0882309F48EC02C
:101BB0006AE370E0C5010E942B1C4C01892BA9F03F
:101BC000AE014F5F5F4FBE016F5E7F4FC5010E9448
:101BD0006C09082FAE014F5F5F4FBE01635F7F4FFF
:101BE000C40101960E946C0918C04AE050E0BE0191
:101BF0006F5F7F4FC5010E94B416698B7A8B8B8B08
:101C00009C8B01E029813A81A216B30608F000E01E
:101C10006D877E878F87988B802F002309F456C0AD
:101C2000882309F453C0E981FA8191E0D6015796DF
:101C30004C9150E060E070E021E089889A88AB88A0
:101C4000BC8884169506A606B7060CF020E081E055
:101C50008D849E84AF84B88884169506A606B70640
:101C60000CF080E0822379F1992369F180818A3335
:101C700051F55F01BFEFAB1ABB0A91F08181882358
:101C800079F0F5018191882329F1282F082E000C85
:101C9000330B205331092A303105A0F38C3291F3F4
:101CA00000E0BF92AF921F920F9382E791E09F9363
:101CB0008F931F93FF920E94551C0FB6F894DEBFBE
:101CC0000FBECDBF9EC062E971E08DC0E0E0F0E0E4
:101CD00090E0ACCFBE8AAD8A00E0AE014B5E5F4FB4
:101CE00061E070E06C0F7D1FE4E00E9F600D711DE0
:101CF00011248D899E890E946C0981110F5FED89E5
:101D0000FE8990819C3219F0033039F0CACF3196A8
:101D1000FE8BED8B8111E1CFF7CF89819A81AB8169
:101D2000BC818F8B988FA98FBA8F8F3F9105A105AA
:101D3000B10511F008F055C08D819E81AF81B88545
:101D40008B8F9C8FAD8FBE8F8F3F9105A105B10505
:101D500011F008F046C049845A846B847C849FEF5C
:101D6000491651046104710409F0D8F5AD84E9887D
:101D7000EA14C0F089851F928F938D811F928F93F3
:101D800089811F928F938D851F928F9389891F92CE
:101D90008F9382E691E09F938F931F93FF920E940F
:101DA000551C8BCFB12C460132E0830E911C6E2D59
:101DB00070E0A616B70684F0D60114968D919C911A
:101DC00015976817790730F4042D2B8D4F89C401BE
:101DD0000E94930CE394EBCFC60102960E94DC0CA8
:101DE000C9CF60EA71E08F2D912F0E943F1CEF2D2B
:101DF000F12FDF010D900020E9F71197CD018E1B27
:101E00009F0B6E960FB6F894DEBF0FBECDBFDF916D
:101E1000CF911F910F91FF90EF90DF90CF90BF90E7
:101E2000AF909F908F907F906F905F904F900895AC
:101E3000AB01BC0189E995E00C94A70DCF93DF932A
:101E4000EC014E815F8160E070E08A859B850E9495
:101E5000241CCE010296DF91CF910C94DC0C1F92D2
:101E60000F920FB60F9211242F933F934F935F93CE
:101E70006F937F938F939F93AF93BF93CF93DF9392
:101E8000EF93FF932091C80430E0F901E458FF4F2D
:101E90008491F901E057FF4FD491F901E255FF4FCA
:101EA000C491CC2379F081110E941B08EC2FF0E043
:101EB000EE0FFF1FE859FF4FA591B491EC91ED2370
:101EC00081E009F480E02091CC043091CD042F5FB3
:101ED0003F4F3093CD042093CC049091CB049536A2
:101EE00018F096E09093C7049091C7049430C9F11C
:101EF00028F4923069F09330D1F05EC0953009F447
:101F000051C0963009F058C091E09093980551C0A7
:101F1000811152C02091CC043091CD04243631057A
:101F200008F442C0109298051092CB041CC0813076
:101F300009F042C0E091CB0491E09E0F9093CB0456
:101F4000F0E02091CC043091CD04EE0FFF1FE95357
:101F5000FB4F308727831092CD041092CC0494E07D
:101F600029C0811117C0E091CB0491E09E0F90939E
:101F7000CB04F0E02091CC043091CD04EE0FFF1F94
:101F8000E953FB4F308727831092CD041092CC0485
:101F900093E010C02091CC043091CD04253631055A
:101FA00058F007C0811108C01092CD041092CC04E3
:101FB00003C095E09093C7049091CA049923B9F0A7
:101FC00081110AC08091C904882321F08091C9043D
:101FD00061E009C02D9A0BC08091C904882331F0BB
:101FE0008091C90460E00E94720A01C02D98FF919F
:101FF000EF91DF91CF91BF91AF919F918F917F91A1
:102000006F915F914F913F912F910F900FBE0F9065
:102010001F901895CF92DF92EF92FF92CF93DF93AC
:10202000EC01072E000C880B990B0E947C196B01A8
:102030007C0120E030E040E45FE30E942C1A20E0C5
:1020400030E048E452E40E94D2180E944419C617B6
:10205000D707D4F020E030E040EA5FE3C701B601E3
:102060000E942C1A20E030E048E452E40E94D2188A
:1020700020E030E040E85FE30E9461180E944419CC
:1020800021E06C177D070CF420E0822F90E0DF91B7
:10209000CF91FF90EF90DF90CF900895CF93DF9393
:1020A000EC0199279F938F938FEA91E09F938F93F1
:1020B0001F9281E08F930E949811D0939003C09358
:1020C0008F030F900F900F900F900F900F90DF9154
:1020D000CF91089540E060E00C94D4110E94E30891
:1020E00090918D03882309F441C0992309F47BC0A2
:1020F0001F929F938BEB91E09F938F931F9281E0B0
:102100008F930E94981190918D03915090938D031D
:102110000F900F900F900F900F900F9080910401EF
:102120009D3310F490FF81500E946A1080918D03BE
:10213000811159C083ED91E09F938F931F9281E0AD
:102140008F930E9498110F900F900F900F90809195
:102150008E03811102C089E101C085E040E460E4A2
:102160000E94D41183E090E00C944E109923D9F191
:10217000915090938D03911136C0809104011F926C
:102180008F9382EE91E09F938F931F9281E08F93C4
:102190000E9498110E94E3080F900F900F900F90EB
:1021A0000F900F90811108C08091040190E001967A
:1021B000809304010E946A100E94E30890918E03AC
:1021C000882321F0911106C088E707C0911104C04F
:1021D00087E203C084E101C08EE080938D0380918B
:1021E00004010C946A100895CF92DF92EF92FF924F
:1021F0000F931F93CF93DF936C017A018B01C0E0A3
:10220000D0E0CE15DF0581F0D8016D918D01D601AA
:10221000ED91FC910190F081E02DC6010995892B8B
:1022200011F02196EECF7E01C701DF91CF911F9172
:102230000F91FF90EF90DF90CF9008950E941F1CA8
:102240008F929F92AF92BF92CF92DF92EF92FF92C6
:102250000F931F93CF93DF93EB01E881F981DC01AA
:102260001C966D917C911D97E617F7070CF04EC0F8
:10227000BF01660F771F1A968D919C911B97DB010A
:10228000A80FB91FAD90BC90E170FF276F01B1E0BE
:10229000CB26EF2B19F48CE99FEF02C084E690E087
:1022A00079018A014C01820E931EB401C5010E947E
:1022B0000A10892B99F48E0C9F1CB401C5010E9451
:1022C0000A10892B71F4B701680D791DC5010E94B0
:1022D0000A10892BF1F023E030E005C021E030E066
:1022E00002C022E030E0F8018081918101968217DE
:1022F00093071CF49183808307C011821082888128
:102300009981019699838883C60105C081E090E098
:1023100002C08FEF9FEFDF91CF911F910F91FF9040
:10232000EF90DF90CF90BF90AF909F908F900895E7
:102330000F931F93CF93DF93CDB7DEB7ECECF0E0B4
:10234000659174918CED95E00E94D3176CED75E06A
:102350008091DA059091DB050E94050A65ED72E037
:102360008091DA059091DB050E94050A9E01255FA8
:102370003F4F49855A8560E470E083EE95E00E9406
:10238000771C0091DA051091DB0563EE75E0C8015A
:102390000E94050A67E472E0C8010E94050ADF9105
:1023A000CF911F910F910895DF92EF92FF920F93BB
:1023B0001F93CF93DF93E82E162FD42EE091D805EC
:1023C000F091D9054681578160E070E08285938560
:1023D0000E94241CF12CC0E0D0E08091D80590919F
:1023E000D905EC16FD0679F0FC0124813581C21770
:1023F000D30738F40D2D212F40E4BE0102960E9430
:10240000930C2196EACF0296DF91CF911F910F9105
:10241000FF90EF90DF900C94DC0C8F929F92AF9224
:10242000BF92CF92DF92EF92FF920E94FA0A4B0185
:102430005C0182E3C82ED12CE12CF12C0E94FA0A17
:10244000DC01CB0188199909AA09BB09883E934090
:10245000A105B10598F321E0C21AD108E108F108FD
:1024600088EE880E83E0981EA11CB11CC114D10413
:10247000E104F10419F7FF90EF90DF90CF90BF9047
:10248000AF909F908F90089587E391E090939A0585
:10249000809399058091A3059091A405009711F070
:1024A0000E94961B8091A10587FD03C060E00C94FB
:1024B000A10A0895789484B5826084BD84B5816052
:1024C00084BD85B5826085BD85B5816085BD8091FF
:1024D0006E00816080936E00109281008091810077
:1024E000826080938100809181008160809381006F
:1024F000809180008160809380008091B100846031
:102500008093B1008091B00081608093B000809191
:102510007A00846080937A0080917A008260809350
:102520007A0080917A00816080937A0080917A00AD
:10253000806880937A001092C100E0912704F091A6
:10254000280412E01083E0912304F0912404108207
:10255000E0912504F091260480E1808310922F04FD
:10256000E0912B04F0912C0486E08083E091290413
:10257000F0912A04808180618083E0912904F091A8
:102580002A04808188608083E0912904F0912A04E4
:10259000808180688083E0912904F0912A04808101
:1025A0008F7D808387E194E09093DB058093DA054B
:1025B00081EB95E00E94DD0A89E995E00E942C09F3
:1025C0008091050190910601909316048093150463
:1025D00080910701909108019093D9058093D805C7
:1025E00080EF91E09F938F931F92C1E0CF930E9461
:1025F00098111F92DFEFDF931F938DEF8F9382E08F
:1026000092E09F938F931F92CF930E9498111F92F5
:10261000DF9382E58F938DEA8F9384E192E09F931D
:102620008F931F92CF930E9498111F92DF9382EC99
:102630008F938DE38F9384E292E09F938F931F9209
:10264000CF930E9498111F92DF9382E28F938DEDBA
:102650008F9386E392E09F938F931F92CF930E9474
:1026600098118DB79EB784960FB6F8949EBF0FBE93
:102670008DBFC0E0D0E08091D8059091D905DC01F4
:1026800014962D913C911597C217D30738F400E2A8
:1026900020E240E2BE0102960E94930C8091D80590
:1026A0009091D90502960E94DC0C0E940D12219691
:1026B000C931D10501F7C8E1D0E08091D8059091EA
:1026C000D905FC0124813581C217D30738F400E015
:1026D00020E040E0BE0102960E94930C8091D80554
:1026E0009091D90502960E94DC0C0E940D12219750
:1026F00020F7D0E401E913E0C1E065EC862E62E04A
:10270000962E73E7272E72E0372EEEE9EE2EE2E0EA
:10271000FE2EFDE8CF2EF2E0DF2EA7E5AA2EA2E0E6
:10272000BA2E80918C03882309F4A3C0A1EDB3E0F5
:10273000ED2F1D92EA95E9F7D801ED2F1D92EA954C
:10274000E9F76CE473E084EC95E00E94A408813022
:10275000910519F0029739F170C08091CA059091E6
:10276000CB052091C6053091C7052115310581F5AE
:10277000DC018C91823531F5809105019091060143
:10278000DC01ED91FC910190F081E02D09958091A3
:10279000070190910801DC01ED91FC910190F0811D
:1027A000E02D09952DC08091CA059091CB0520910F
:1027B000C6053091C7052115310529F5FC01808139
:1027C0008235F1F0BFE3B093910381E090E02BC03C
:1027D000233031057CF065E472E081E993E00E94EA
:1027E0003F1CF80101900020E9F73197CF01815992
:1027F000934017C0220F331FF901E250FF4F0BC067
:102800006EE571E0EACF121613062CF3220F331F88
:10281000F901E157FC4F0190F081E02D61E973E08F
:102820000995009751F0282F41E953E061ED73E0DD
:1028300084EC95E00E94330906C061E472E081ED0A
:1028400093E00E943F1C61ED73E087E194E00E94F9
:10285000050A67E472E087E194E00E94050A10929D
:102860008C03109248031092490310924A0310926D
:102870004B032FB7F8948091B4049091B504A091C4
:10288000B604B091B7042FBF4091110450911204C7
:1028900060911304709114042C013D01441A550AEF
:1028A000660A770AB301A2014B3051056105710533
:1028B000F0F08093110490931204A0931304B0934A
:1028C00014048091050190910601DC01ED91FC91C9
:1028D0000680F781E02D099580910701909108010C
:1028E000DC01ED91FC910680F781E02D0995609067
:1028F000150470901604B3016E5F7F4FC3014296BA
:102900000E949300892B09F4AAC0F30146805780E6
:102910006084718482E08093C7041092CB047F921C
:102920006F925F924F928AE492E09F938F931F92EF
:10293000CF930E949811EDB7FEB738960FB6F89472
:10294000FEBF0FBEEDBFFDED4F16F2E25F06FFEFDB
:102950006F06710409F469C048F48DEF481682E0EF
:1029600058068FEF6806710491F06DC09DEA491614
:1029700092E559069FEF6906710409F1ADE34A1625
:10298000A2EC5A06AFEF6A06710499F15CC080911F
:102990008F0390919003892B09F061C0BF92AF9291
:1029A0001F92CF930E949811C093040181E00E946E
:1029B0006A101092BE0410928E0387E217C08091B5
:1029C0008F0390919003892B09F049C03F922F9279
:1029D0001F92CF930E949811C093040181E00E943E
:1029E0006A101092BE04C0938E038EE080938D0314
:1029F00019C080918F03909190038130910549F423
:102A0000DF92CF921F92CF930E94981182E090E0C4
:102A10009BC0029709F088C0FF92EF921F92CF935C
:102A20000E94981181E090E08FC080918F03909177
:102A300090039C01225031092230310508F477C0FF
:102A4000892B69F474C0E1EBF2E0FF93EF931F92DE
:102A5000CF930E9498110F900F900F900F9080913C
:102A60008F0390919003019709F05EC08091BE049E
:102A700081110FC0E091C304F091C404309709F4B0
:102A80003EC06091C5047091C60488EB94E009953E
:102A900036C04091BC045091BD0460E070E02FB797
:102AA000F8948091B4049091B504A091B604B091CB
:102AB000B7042FBF4090B8045090B9046090BA0496
:102AC0007090BB0484199509A609B7098417950766
:102AD000A607B70778F01092BE04E091BF04F0910A
:102AE000C004309739F26091C1047091C20488EB40
:102AF00094E009958091BE04811116C0BBCFC093AC
:102B0000BE042FB7F8948091B4049091B504A091BD
:102B1000B604B091B7042FBF8093B8049093B90462
:102B2000A093BA04B093BB040E942609FACD9F92E9
:102B30008F921F92CF930E949811C093040181E05D
:102B40000E946A1080E090E00E944E1084CF1092A4
:102B50001A041092190488EE93E0A0E0B0E080938C
:102B60001B0490931C04A0931D04B0931E0423E146
:102B700031E0309318042093170425EC30E03093B3
:102B800024042093230424EC30E030932604209383
:102B9000250420EC30E0309328042093270421EC16
:102BA00030E030932A042093290422EC30E0309363
:102BB0002C0420932B0426EC30E030932E04209339
:102BC0002D041092300410923104109232041092AD
:102BD00033041092CF051092CE058093D0059093C8
:102BE000D105A093D205B093D30585E291E09093EF
:102BF000CD058093CC0584EF91E09093BD04809344
:102C0000BC041092C0041092BF041092C20410922F
:102C1000C1048EE690E19093C4048093C3041092A3
:102C2000C6041092C50481E08093BE049FB7F89457
:102C30004091B4045091B5046091B6047091B7040A
:102C40009FBF4093B8045093B9046093BA04709343
:102C5000BB0423E431E03093B2052093B1059BE03F
:102C60009093C8041092CA0427E331E030939A0588
:102C70002093990510929C051092A2051092A90527
:102C80001092AA051092AB051092AC058093A8058E
:102C90008093A5051092A60592E09093A7058093D6
:102CA0009B058BE490E09093A00580939F050E9484
:102CB000FE1A9093A4058093A305009761F02BE47E
:102CC000FC0111922A95E9F789E190E090939E0525
:102CD00080939D0508C01092A00510929F05109248
:102CE0009E0510929D0583E08093A10580919C052F
:102CF000882341F061E083E00E94A10A60E083E064
:102D00000E94720AE1EBF0E0E491F0E0EE0FFF1FA9
:102D1000EC55FF4F859194919093AE058093AD054E
:102D2000E3E9F0E0E491E093AF0589E18093B00539
:102D30008091A10587FD08C061E00E94A10A60E0C2
:102D40008091A1050E94720A81E080939C058FE426
:102D500091E09093C5058093C4058FEF9FEF90930A
:102D6000C7058093C6050895A0E0B0E0EAEBF6E160
:102D70000C941B185C016B017A016115710519F047
:102D8000FB0191838083E114F10429F0C7010297CC
:102D9000839708F0E5C0E5012196F5011081812FA8
:102DA00090E00E94CA17892B11F05E01F4CF1D320A
:102DB00029F42196F501118101E007C01B3221F4AD
:102DC000E5012296F501118100E0E114F10409F119
:102DD000F0E1EF16F10429F43FC010E3E114F1042F
:102DE00021F128E0E216F10401F154F4E2E0EE16DC
:102DF000F10421F5812C912CA12CB0E4BB2E3EC016
:102E0000FAE0EF16F10439F020E1E216F104B1F432
:102E100030C0103319F1FAE0EF2EF12CACEC8A2E11
:102E2000982CA82CACE0BA2E29C078E0E72EF12C23
:102E3000812C912CA12CE0E1BE2E20C060E070E03E
:102E400080E090E897010F2C000C440B550B0E947A
:102E5000ED1749015A0112C0103359F488818F7D52
:102E6000883509F0BACF19812296026080E1E82EF8
:102E7000F12C812C912CA12C68E0B62E40E060E072
:102E800070E0CB0127010F2C000C66087708FE01CB
:102E900050ED352E310E29E0231570F42FEB210F64
:102EA0002A3118F439EC332E06C02FE9210F2A31CC
:102EB00018F529EA322E310E232D30E02E153F056C
:102EC000DCF447FD16C086169706A806B90670F012
:102ED000A30192010E94DD17630D711D811D911DDB
:102EE00061307105810520E8920710F04FEF01C0B5
:102EF00041E021961081CBCF202F2170C114D10445
:102F000071F0442329F02197F601D183C08307C0D3
:102F100001FF19C02297F601D183C08314C047FF77
:102F200012C0222329F060E070E080E090E804C045
:102F30006FEF7FEF8FEF9FE722E230E030932406C0
:102F40002093230609C0222381F0909580957095E7
:102F500061957F4F8F4F9F4F462F372F282F12C0DD
:102F600040E030E020E090E00DC097FFF5CF82E236
:102F700090E090932406809323066FEF7FEF8FEF0E
:102F80009FE7EACF642F732F822FCDB7DEB7E1E141
:102F90000C94371891110C94DA17803219F089507B
:102FA0008550C8F70895FB01DC0105900D920020C3
:102FB000E1F70895992788270895DB018F939F9360
:102FC0000E940F18BF91AF91A29F800D911DA39FEA
:102FD000900DB29F900D11240895A1E21A2EAA1B04
:102FE000BB1BFD010DC0AA1FBB1FEE1FFF1FA217B9
:102FF000B307E407F50720F0A21BB30BE40BF50BB6
:10300000661F771F881F991F1A9469F7609570953E
:10301000809590959B01AC01BD01CF0108950E9460
:103020005118A59F900DB49F900DA49F800D911DE8
:10303000112408952F923F924F925F926F927F9248
:103040008F929F92AF92BF92CF92DF92EF92FF92B8
:103050000F931F93CF93DF93CDB7DEB7CA1BDB0B64
:103060000FB6F894DEBF0FBECDBF09942A88398809
:1030700048885F846E847D848C849B84AA84B98410
:10308000C884DF80EE80FD800C811B81AA81B9811C
:10309000CE0FD11D0FB6F894DEBF0FBECDBFED0130
:1030A0000895A29FB001B39FC001A39F700D811D21
:1030B0001124911DB29F700D811D1124911D089541
:1030C0005058BB27AA270E9478180C94F2190E9426
:1030D000E41938F00E94EB1920F039F49F3F19F4FD
:1030E00026F40C94E1190EF4E095E7FB0C94DB193F
:1030F000E92F0E94031A58F3BA176207730784076F
:10310000950720F079F4A6F50C94251A0EF4E095B5
:103110000B2EBA2FA02D0B01B90190010C01CA0191
:10312000A0011124FF27591B99F0593F50F4503E3C
:1031300068F11A16F040A22F232F342F4427585F2E
:10314000F3CF469537952795A795F0405395C9F746
:103150007EF41F16BA0B620B730B840BBAF09150FE
:10316000A1F0FF0FBB1F661F771F881FC2F70EC09D
:10317000BA0F621F731F841F48F487957795679570
:10318000B795F7959E3F08F0B0CF9395880F08F05C
:103190009927EE0F9795879508950E94B71908F41F
:1031A00081E008950E94E6180C94F2190E94EB1930
:1031B00058F00E94E41940F029F45F3F29F00C9484
:1031C000DB1951110C94261A0C94E1190E94031A70
:1031D00068F39923B1F3552391F3951B550BBB2746
:1031E000AA2762177307840738F09F5F5F4F220F8B
:1031F000331F441FAA1FA9F335D00E2E3AF0E0E882
:1032000032D091505040E695001CCAF72BD0FE2FCB
:1032100029D0660F771F881FBB1F2617370748075F
:10322000AB07B0E809F0BB0B802DBF01FF27935817
:103230005F4F3AF09E3F510578F00C94DB190C94E7
:10324000261A5F3FE4F3983ED4F386957795679509
:10325000B795F7959F5FC9F7880F911D969587954C
:1032600097F90895E1E0660F771F881FBB1F62176B
:1032700073078407BA0720F0621B730B840BBA0B29
:10328000EE1F88F7E09508950E944B196894B111DC
:103290000C94261A08950E940B1A88F09F5798F0F4
:1032A000B92F9927B751B0F0E1F0660F771F881F4B
:1032B000991F1AF0BA95C9F714C0B13091F00E9465
:1032C000251AB1E008950C94251A672F782F8827C6
:1032D000B85F39F0B93FCCF3869577956795B3958C
:1032E000D9F73EF490958095709561957F4F8F4FFB
:1032F0009F4F0895E89409C097FB3EF49095809500
:10330000709561957F4F8F4F9F4F9923A9F0F92FAB
:1033100096E9BB279395F695879577956795B79529
:10332000F111F8CFFAF4BB0F11F460FF1BC06F5F0F
:103330007F4F8F4F9F4F16C0882311F096E911C021
:10334000772321F09EE8872F762F05C0662371F042
:1033500096E8862F70E060E02AF09A95660F771F56
:10336000881FDAF7880F9695879597F90895990F32
:103370000008550FAA0BE0E8FEEF16161706E8073F
:10338000F907C0F012161306E407F50798F0621B60
:10339000730B840B950B39F40A2661F0232B242B35
:1033A000252B21F408950A2609F4A140A6958FEF54
:1033B000811D811D089597F99F6780E870E060E0A6
:1033C00008959FEF80EC089500240A9416161706BE
:1033D00018060906089500240A9412161306140606
:1033E00005060895092E0394000C11F4882352F069
:1033F000BB0F40F4BF2B11F460FF04C06F5F7F4F21
:103400008F4F9F4F089557FD9058440F551F59F007
:103410005F3F71F04795880F97FB991F61F09F3FC1
:1034200079F087950895121613061406551FF2CFEA
:103430004695F1DF08C0161617061806991FF1CF3A
:1034400086957105610508940895E894BB27662761
:103450007727CB0197F908950E943F1A0C94F2192F
:103460000E94E41938F00E94EB1920F0952311F026
:103470000C94DB190C94E11911240C94261A0E9467
:10348000031A70F3959FC1F3950F50E0551F629F8B
:10349000F001729FBB27F00DB11D639FAA27F00DAD
:1034A000B11DAA1F649F6627B00DA11D661F829FD4
:1034B0002227B00DA11D621F739FB00DA11D621FB9
:1034C000839FA00D611D221F749F3327A00D611DD6
:1034D000231F849F600D211D822F762F6A2F1124B8
:1034E0009F5750409AF0F1F088234AF0EE0FFF1FEB
:1034F000BB1F661F771F881F91505040A9F79E3F42
:10350000510580F00C94DB190C94261A5F3FE4F30C
:10351000983ED4F3869577956795B795F795E79597
:103520009F5FC1F7FE2B880F911D9695879597F9A0
:10353000089597FB072E16F4009407D077FD09D065
:103540000E94E41A07FC05D03EF4909581959F4FA8
:103550000895709561957F4F08950F93083090F00E
:10356000982F872F762F652F542F432F322F222706
:103570000850F4CF220F331F441F551F661F771FBB
:10358000881F991F0A95B2F70F91089597FB10F8BD
:10359000169400080F93083098F00850232F342F0A
:1035A000452F562F672F782F892F902DF4CF059414
:1035B000979587957795679557954795379527956B
:1035C0000A95AAF70F910895AA1BBB1B51E107C0EA
:1035D000AA1FBB1FA617B70710F0A61BB70B881FA3
:1035E000991F5A95A9F780959095BC01CD01089532
:1035F000EE0FFF1F0590F491E02D09940F931F9398
:10360000CF93DF938230910510F482E090E0E09157
:103610002706F091280620E030E0A0E0B0E03097E7
:1036200019F1408151810281138148175907C8F06F
:103630008417950769F4109731F012960C9312973E
:1036400013961C9327C0009327061093280622C0C8
:103650002115310519F04217530718F49A01BD01DD
:10366000EF01DF01F801DBCF21153105F9F0281B4F
:10367000390B2430310580F48A819B8161157105F5
:1036800021F0FB019383828304C0909328068093EA
:103690002706FE01329644C0FE01E20FF31F81931C
:1036A000919322503109398328833AC0209125060D
:1036B00030912606232B41F420910B0130910C010F
:1036C00030932606209325062091090130910A01A6
:1036D0002115310541F42DB73EB740910D015091B0
:1036E0000E01241B350BE0912506F0912606E2170A
:1036F000F307A0F42E1B3F0B2817390778F0AC0115
:103700004E5F5F4F2417350748F04E0F5F1F5093F1
:103710002606409325068193919302C0E0E0F0E0F5
:10372000CF01DF91CF911F910F910895CF93DF9338
:10373000009709F481C0FC01329713821282A09194
:103740002706B0912806109781F420813181820FDD
:10375000931F20912506309126062817390751F529
:10376000F0932606E093250667C0ED0120E030E0E7
:10377000CE17DF0740F44A815B819E014115510558
:10378000F1F0EA01F5CFD383C28340815181840FE8
:10379000951FC817D90759F488819981840F951FFF
:1037A0000296918380838A819B81938382832115F2
:1037B000310529F4F0932806E09327063DC0E9017E
:1037C000FB83EA8349915991C40FD51FEC17FD077C
:1037D00061F480819181840F951F0296E90199839C
:1037E0008883828193819B838A83E0E0F0E0129654
:1037F0008D919C911397009719F0FD01DC01F7CF93
:103800008D919C9111979D012E5F3F4F820F931FC9
:1038100020912506309126062817390769F430973C
:1038200029F4109228061092270602C013821282F1
:10383000B0932606A0932506DF91CF91089581E0ED
:1038400090E0F8940C94341FDC0101C06D9341505A
:103850005040E0F70895FC018191861721F08823FC
:10386000D9F7992708953197CF010895FB01DC011D
:103870008D91019080190110D9F3990B0895FB01E6
:10388000DC0101900D920020E1F70895FB01DC01BD
:103890004150504048F001900D920020C9F701C0FE
:1038A0001D9241505040E0F70895AEE0B0E0EBE5E6
:1038B000FCE10C9428180D891E8986E08C831A83FC
:1038C00009838FEF9FE79E838D83AE01475E5F4F35
:1038D0006F89788DCE0101960E94A31CEF81F88537
:1038E000E00FF11F10822E96E4E00C944418AEE035
:1038F000B0E0EDE7FCE10C9428188C01FA0186E0B9
:103900008C831A83098377FF02C060E070E8CB01E3
:1039100001979E838D83A901BF01CE0101960E946C
:10392000A31C4D815E8157FD0AC02F813885421747
:1039300053070CF49A01F801E20FF31F10822E9640
:10394000E4E00C944418ABE0B0E0E9EAFCE10C944C
:103950001A186C017B018A01FC011782168283818F
:1039600081FFCCC1CE0101963C01F6019381F701A4
:1039700093FD859193FF81917F01882309F4BAC15A
:10398000853239F493FD859193FF81917F018532D2
:1039900029F4B60190E00E949A1EE7CF912C212CC9
:1039A000312CFFE1F315D8F08B3279F038F4803206
:1039B00079F08332A1F4232D20611DC08D3261F096
:1039C000803369F4232D216016C0832D8260382E48
:1039D000E32DE4603E2E2AC0F32DF8601DC037FCB5
:1039E0002DC020ED280F2A3040F08E32B9F436FC7D
:1039F00081C1232D2064322E19C036FE06C08AE014
:103A0000989E200D1124922E11C0EAE02E9E200DCA
:103A10001124222EF32DF0623F2E08C08C3621F4A3
:103A2000832D8068382E02C0883641F4F70193FD5B
:103A3000859193FF81917F018111B3CF982F9F7D55
:103A40009554933028F40C5F1F4F9FE399830DC06A
:103A5000833631F0833771F0833509F059C021C0C6
:103A6000F801808189830E5F1F4F88248394912CF5
:103A7000530113C02801F2E04F0E511CF801A08041
:103A8000B18036FE03C0692D70E002C06FEF7FEF9A
:103A9000C5010E948F1E4C018201F32DFF773F2E3E
:103AA00016C0280122E0420E511CF801A080B1800E
:103AB00036FE03C0692D70E002C06FEF7FEFC501D5
:103AC0000E94841E4C01F32DF0683F2E820133FCCE
:103AD0001BC0822D90E088169906B0F4B60180E2F2
:103AE00090E00E949A1E2A94F4CFF50137FC85914C
:103AF00037FE81915F01B60190E00E949A1E21106D
:103B00002A9421E0821A91088114910471F7E8C087
:103B1000843611F0893641F5F80137FE07C060811F
:103B20007181828193810C5F1F4F08C06081718118
:103B3000072E000C880B990B0E5F1F4FF32DFF769D
:103B40003F2E97FF09C090958095709561957F4FA6
:103B50008F4F9F4FF0683F2E2AE030E0A3010E9474
:103B6000D61E882E861845C0853731F4232D2F7E2A
:103B7000B22E2AE030E025C0932D997FB92E8F36E2
:103B8000C1F018F4883579F0B5C0803719F088375E
:103B900021F0B0C0E92FE061BE2EB4FE0DC0FB2DB8
:103BA000F460BF2E09C034FE0AC0292F2660B22E51
:103BB00006C028E030E005C020E130E002C020E18E
:103BC00032E0F801B7FE07C0608171818281938184
:103BD0000C5F1F4F06C06081718180E090E00E5F36
:103BE0001F4FA3010E94D61E882E8618FB2DFF773B
:103BF0003F2E36FE0DC0232D2E7FA22E891458F4A1
:103C000034FE0BC032FC09C0832D8E7EA82E05C069
:103C1000B82CA32C03C0B82C01C0B92CA4FE0FC033
:103C2000FE01E80DF11D8081803321F49A2D997EEB
:103C3000A92E09C0A2FE06C0B394B39404C08A2D75
:103C4000867809F0B394A3FC11C0A0FE06C0B2149C
:103C500088F4280C922C9B180EC0B21460F4B601A4
:103C600080E290E00E949A1EB394F7CFB21418F449
:103C70002B1802C0982C212CA4FE10C0B60180E3A2
:103C800090E00E949A1EA2FE17C0A1FC03C088E724
:103C900090E002C088E590E0B6010CC08A2D8678DD
:103CA00059F0A1FE02C08BE201C080E2A7FC8DE2C8
:103CB000B60190E00E949A1E891438F4B60180E3A0
:103CC00090E00E949A1E9A94F7CF8A94F301E80D2F
:103CD000F11D8081B60190E00E949A1E8110F5CFFF
:103CE000222009F442CEB60180E290E00E949A1EA2
:103CF0002A94F6CFF6018681978102C08FEF9FEF5D
:103D00002B96E2E10C943618FC010590615070404E
:103D10000110D8F7809590958E0F9F1F0895FC0194
:103D20006150704001900110D8F7809590958E0FEA
:103D30009F1F08950F931F93CF93DF93FB01238160
:103D400021FD03C08FEF9FEF2CC022FF16C04681DC
:103D50005781248135814217530744F4A081B181F2
:103D60009D012F5F3F4F318320838C9326813781C4
:103D70002F5F3F4F3783268314C08B01EC01FB017B
:103D80000084F185E02D0995892BE1F6D80116967E
:103D90008D919C911797019617969C938E931697E9
:103DA000CE01DF91CF911F910F910895FA01AA27BB
:103DB000283051F1203181F1E8946F936E7F6E5F6E
:103DC0007F4F8F4F9F4FAF4FB1E03ED0B4E03CD01C
:103DD000670F781F891F9A1FA11D680F791F8A1FFF
:103DE000911DA11D6A0F711D811D911DA11D20D066
:103DF00009F468943F912AE0269F11243019305D20
:103E00003193DEF6CF010895462F4770405D419310
:103E1000B3E00FD0C9F7F6CF462F4F70405D4A335D
:103E200018F0495D31FD4052419302D0A9F7EACF25
:103E3000B4E0A6959795879577956795BA95C9F754
:103E400000976105710508959B01AC010A2E069447
:103E50005795479537952795BA95C9F7620F731F00
:103E6000841F951FA01D089510E0C8E6D0E004C08F
:103E7000FE010E94F81A2196C936D107C9F7F894B5
:023E8000FFCF72
:103E8200FF09180F01B105990500002906800000FD
:103E9200000000AC07F4104307F9077407520766E5
:103EA20007000000008F088408A10876087D087AC0
:103EB200087708000000001E0F2C09A70D760800E5
:103EC2000000007608DD0AA309760800000000A4BD
:103ED2000833092578004E6F205265637600524FF1
:103EE2004B0025752D25753A2025752C25752C2519
:103EF200750056616C756520636F756E7420696E0E
:103F0200636F7272656374202825752920272573D3
:103F12002700496E76616C69642072616E67650084
:103F2200496E76616C69642076616C756573004ECA
:103F32006577206D6F6465202564002564207365B4
:103F4200636F6E64732072656D61696E696E672E50
:103F52002E2E0047616D652066696E69736865641F
:103F62002100456E64206F6620646179202575000A
:103F72005265636F676E6973656420636F6465730E
:103F82003A005374617274206E6F726D616C3A20E4
:103F9200256C7800537461727420746573743A20CE
:103FA200256C780050617573652F726573756D6548
:103FB2003A20256C780052657365743A20256C7836
:103FC20000414444523F000D0A00476F7420636F62
:103FD200646520256C78005374617274696E672081
:103FE200636F756E74646F776E20286E6F726D6189
:103FF2006C29005374617274696E6720636F756E09
:1040020074646F776E2028746573742900436F752A
:104012006E74646F776E2070617573656400436FB0
:10402200756E74646F776E20726573756D696E67F5
:1040320000436F6465206E6F74207265636F676EF4
:104042006973656400436F756E74646F776E207276
:0840520065736574003A20005B
:00000001FF
